:1000000006308A00A22E0000831A0A28A400030EDC
:10001000A5000F288312A400030EA500A5140A084A
:10002000AB008A018313A40E0408A6002008A700D1
:100030002108A8002208A9002308AA0083128B1E09
:1000400023280B193E290B1E27288B1840288C309B
:100050008400001C2D280C18762826088400270808
:10006000A0002808A1002908A2002A08A3002B0844
:100070008A00250E83008312240EA518831609001A
:100080008B100B128B12B601053090008E01FC30E4
:100090008F00B7308E0083160C148312C801311400
:1000A000B301B401B501B701B201BB010030A10039
:1000B0008B108A112D28B117420B63283408C90010
:1000C0003308CA006C28C208031D6C283508C90013
:1000D0003408CA003308CB0010108B108B100B169D
:1000E00083160C1083128B16BB010800CE0114304E
:1000F000CD003112311CB728831605158312B110BB
:100100000519B1143111B11831153110311D9E2866
:10011000311D9D28831605158312311105193115DE
:10012000CD08031D9628CE0803199B284D080319F6
:10013000CE03CD039C2831118828AF283119AF2870
:100140008316051583123111051931154D08031950
:10015000CE03CD0BAE28CE08031931159E280530ED
:1001600090008E01FF308F0069308E003929831690
:1001700005158312B1110519B11531140530900020
:100180008E01FE308F00A1308E003112B20A4C1069
:10019000CC1032081A3C031C3029B118D628B11DE6
:1001A000D6280314B30DB40DB50D2F29B11CDF28CB
:1001B000B119DF280310B30DB40DB50D2F29B11CF3
:1001C0002629B11D26293208113A0319F128033ACC
:1001D0000319F3280B3A03190729033A03190929CC
:1001E0001C29C80A2529C80A4808023C031DFF2803
:1001F0000130C2005B204C144C11CC100629311682
:100200008B100B1683160C1083128B162529C80A27
:100210002529C80A4808023C031D1429C2015B2095
:100220004C104C15CC101B2931168B100B16831655
:100230000C1083128B162529311610108B100B16FB
:1002400083160C1083128B16BB012F293116BB01AC
:1002500010108B100B1683160C1083128B16392975
:10026000B116BB0110108B100B1683160C108312E5
:100270008B160030A1000C108A112D28CC15BD0B57
:1002800047290430BD003B08F93C0318BB0A971FFF
:100290005E29E108031D5629E008031D5629DF08E1
:1002A000031D56295E08023C03185E29FF30DE0755
:1002B000031CDF07031CE007031CE1070030A1005B
:1002C0000B118A112D28053083169B009C131C14DA
:1002D0001A088312E400043083169B009C131C143C
:1002E0001A088312E5006408D0006508CF000230C8
:1002F000A000A00B79297C29000083169B019C1388
:100300001C141A088312D5000230A000A00B862905
:1003100089290000013083169B009C131C141A08C5
:100320008312D3000230A000A00B9429972900006B
:10033000023083169B009C131C141A088312D400ED
:100340000230A000A00BA229A529000003308316CB
:100350009B009C131C141A088312D9000230A000C1
:10036000A00BB029B3290000203083169B009C13FA
:100370001C141A088312C7000230A000A00BBE296B
:10038000C1290000213083169B009C131C141A08FD
:100390008312E2000230A000A00BCC29CF2900007C
:1003A000223083169B009C131C141A088312E3004E
:1003B0000230A000A00BDA29DD290000080000307F
:1003C000A10004389200F93083169200871283123C
:1003D00087120C3095009601203097009A010A3060
:1003E0009900831605081038850002308312A0009A
:1003F000A00BF829FB29000019088C1163080F3C99
:10040000031C052AE308031D072A0130E3006308E3
:10041000A038E40083169900831296139916831668
:100420000108C73908388100053083129000101088
:100430008B108316011383120B168B1683168C10E8
:10044000C03083128B041730BB00B113E02E540868
:100450006402031C2E2A5408E400342A6408530260
:10046000031C342A5308E40064085302031C3D2A89
:100470008316071183120711412A8316071183126D
:10048000071564085E3C031C482ABA016408B900D9
:1004900064085E3C0318502A0330BA00FF30B900EC
:1004A0003A08023C03185F2AFF3A031D5B2A390809
:1004B000FC3C03185F2A0330BA00FF30B9003A0849
:1004C000A2003908A100A20CA10CA20CA10CA20C44
:1004D00021089300A20C220C3039A0001508CF3956
:1004E000200495000800E4012722C4010800380810
:1004F000E40027220130C40008002030F000EC01A5
:10050000ED01EE01EF016708A3006608A20065088F
:10051000A1006408A0000310201C9C2A6808EC07B6
:1005200069080318690FED076A0803186A0FEE07D8
:100530006B0803186B0FEF07EF0CEE0CED0CEC0CD7
:10054000A30CA20CA10CA00CF00B8B2A422F311390
:10055000831605158312051DB12A05108316051093
:1005600083121930A000A00BB32AB62A000083160C
:1005700005158312051DC22A051483160510831262
:100580003117F92A6030A000A00BC42A000083169E
:10059000051583120519D12A051483160510D82ACA
:1005A000831205148316051083123117F92A831656
:1005B00019308312A000A00BDB2ADE2A000083166C
:1005C000051583120519EA2A0514831605108312EE
:1005D0003117F92A6030A000A00BEC2A0000831626
:1005E000051583120519F92A0514831605108312BF
:1005F0003117080005148316051005308312E60034
:10060000A330E7001230E702031C142B673084008C
:10061000FC3080050310800C800C00080319142B9B
:10062000122B0000800B112BE60B002B0800650D30
:10063000BE00BE0DBE0DF830BE053B08143C0318CD
:100640001D2B0B138B138B1B222BA722BC013E08E7
:100650003C020318782B0314BF0DC00DC10D031C01
:10066000332BA722742B3113051483160510193070
:100670008312A000A00B3A2B3D2B0000831605151A
:1006800083120519452B3117742B6030A000A00B85
:10069000472B0000831605158312051D542B0510EA
:1006A000831605105B2B8312051483160510831225
:1006B0003117742B831619308312A000A00B5E2B08
:1006C000612B0000831605158312051D692B311758
:1006D000742B6030A000A00B6B2B00008316051557
:1006E0008312051D742B3117311B7C2BBC0A272B61
:1006F000FA22FA22FA22FA2205148316051083122E
:10070000BB018B10C0308B048B160800C5014A0852
:10071000C93A0319D42B193A0319F12B043A0319D6
:10072000032C0C3A03190A2C293A03190A2C2D3AE6
:100730000319152C2C3A0319152C1A3A0319202CDD
:100740000D3A0319452CEE3A03196D2C2B3A031977
:10075000302D013A0319542D073A0319592D013A46
:100760000319802D033A0319892D013A0319982D95
:10077000163A0319A62D033A0319CE2D013A03198F
:10078000DD2D193A0319EC2D013A03190C2E1B3AF1
:1007900003192C2E043A03192E2E013A03193D2E6B
:1007A000033A03195C2E702E54084B02031CDF2BF6
:1007B00083160711831207155408B800EF2B4B0856
:1007C0005302031CE92B8316071183120711B8018A
:1007D000EF2B83160711831207154B08B8007722F9
:1007E000722EE101E0010B30DF00B830DE00DD01E8
:1007F000DC01DB01DA0183160711831207155408A7
:10080000B8007722722E8316071183120711B801E0
:100810007322722E440B142C380853020318142C24
:10082000B8033808E4002722722E440B1F2C54080A
:10083000380203181F2CB80A3808E4002722722E49
:100840004B08103C031C442C4B08C30006304307E4
:10085000E400640883169B009C131C141A0883127E
:10086000B80038085302031C3C2CB801831607114A
:10087000831207117322442C831607118312071564
:1008800077223808E4002722722E4B08103C031C04
:100890006C2C0B138B138B1B4A2C06304B07E4007C
:1008A0000B08A0008B13640883169B008312380882
:1008B00083169A009C131C1555309D00AA309D008C
:1008C0009C149C18612C1C11831220088B04682C2A
:1008D000692C0000C0308B04722E053083169B00FB
:1008E0009C131C141A088312E400043083169B0026
:1008F0009C131C141A088312E5006408D0006508D4
:10090000CF004B080F39D1004B08103903198C2C3C
:10091000103A0319E02C2F2DA3010130A200510839
:10092000A0000319982C0310A20DA30DA00B932C6B
:100930002208FF3AA000FF30A3062008CF052308B5
:10094000D0054F08E4000B08A0008B130430831679
:100950009B0083124F0883169A009C131C15553078
:100960009D00AA309D009C149C18B42C1C1183126D
:1009700020088B040230A000A00BBC2CBF2C000070
:100980005008E4000B08A0008B13053083169B0071
:100990008312500883169A009C131C1555309D0035
:1009A000AA309D009C149C18D32C1C118312200883
:1009B0008B040230A000A00BDB2CDE2C00002F2DBE
:1009C000A3010130A2005108A0000319EC2C031070
:1009D000A20DA30DA00BE72C2208CF042308D004FE
:1009E0004F08E4000B08A0008B13043083169B0013
:1009F00083124F0883169A009C131C1555309D00D6
:100A0000AA309D009C149C18032D1C1183122008F1
:100A10008B040230A000A00B0B2D0E2D00005008FF
:100A2000E4000B08A0008B13053083169B00831293
:100A3000500883169A009C131C1555309D00AA304F
:100A40009D009C149C18222D1C11831220088B04DD
:100A50000230A000A00B2A2D2D2D00002F2D722E6C
:100A60004B083F3C031C532D4B08D9000B08A0003A
:100A70008B13033083169B008312590883169A0048
:100A80009C131C1555309D00AA309D009C149C1889
:100A9000472D1C11831220088B040230A000A00BEC
:100AA0004F2D522D0000722E4B08D6000130D80079
:100AB000722E4B08D700580B7E2D5708203C031C84
:100AC0007E2DD8010B08A0008B13570883169B00BE
:100AD0008312560883169A009C131C1555309D00EE
:100AE000AA309D009C149C18732D1C1183122008A1
:100AF0008B040630A000A00B7B2D00006321722E1A
:100B00005908C1005608C0000230E400E500172370
:100B1000722E4B08D7005708203C031C972D57080E
:100B200083169B009C131C141A088312D600722E85
:100B30005908C10083169B019C131C141A088312C8
:100B4000C0000230E400E5001723722E4B08CF3CB2
:100B50000318CD2D4B08DF3C031CCD2D4B08C700DF
:100B60000B08A0008B13203083169B0083124708CC
:100B700083169A009C131C1555309D00AA309D00C9
:100B80009C149C18C12D1C11831220088B04023068
:100B9000A000A00BC92DCC2D0000722E5908C10059
:100BA000073083169B009C131C141A088312C00084
:100BB0000230E400E5001723722E5908C100083006
:100BC00083169B009C131C141A088312C000023069
:100BD000E400E5001723722E4B08D4000B08A00098
:100BE0008B13023083169B008312540883169A00DD
:100BF0009C131C1555309D00AA309D009C149C1818
:100C0000FF2D1C11831220088B040230A000A00BC2
:100C1000072E0A2E0000722E4B08D3000B08A000EE
:100C20008B13013083169B008312530883169A009E
:100C30009C131C1555309D00AA309D009C149C18D7
:100C40001F2E1C11831220088B040230A000A00B61
:100C5000272E2A2E0000722E9713722E5908C100DB
:100C6000213083169B009C131C141A088312C000A9
:100C70000230E400E5001723722E4B08E3000B0856
:100C8000A0008B13223083169B0083126308831607
:100C90009A009C131C1555309D00AA309D009C1491
:100CA0009C18502E1C11831220088B040230A000C7
:100CB000A00B582E5B2E00005908C100223083166D
:100CC0009B009C131C141A088312C0000230E4001D
:100CD000E50017230230A000A00B6C2E6F2E000041
:100CE0000130C500C508031D8B2E0B08A0008B1317
:100CF00083169B018312380883169A009C131C15D7
:100D000055309D00AA309D009C149C18852E1C1106
:100D1000831220088B040230E40064308400000851
:100D20000319A02E0130A100A001A00B952EA10B4C
:100D3000942E4A30A000A00B9B2E9E2E800B922E4C
:100D4000C601080003081F398300613083168F0035
:100D50000F0804308312BD003113D430C7000130B6
:100D6000CE002C30CD00D2010930D900CC11DD01EC
:100D7000DC01DB01DA01E101E001DF01DE01E2017A
:100D80000130E3001F1300308316910083129A0193
:100D900007309900AC011814113098000A30A000F7
:100DA0008101813084000008F03907388000640038
:100DB0000008F739A019F039200480006321DF29E9
:100DC000053083169B009C131C141A088312E40040
:100DD000043083169B009C131C141A088312E50030
:100DE0006408D0006508CF0083169B019C131C1477
:100DF0001A088312D50055085302031C062F8316C8
:100E0000071183120711B8017322102F83160711DF
:100E1000831207155508B8003808E4002722772206
:100E2000E101E0010B30DF00B830DE00DD01DC0164
:100E3000DB01DA019713E108031D892FE008031D88
:100E4000892FDF08031D892F5E08023C031C892FB0
:100E5000971F892F97130130DA070318DB0A03194C
:100E6000DC0A0319DD0A5D08E7005C08E6005B08A0
:100E7000E5005A08E400EB01EA011330E90088308C
:100E8000E8007D2A2008DE0721080318210FDF076C
:100E900022080318220FE00723080318230FE10795
:100EA000E108031D612FE008031D612F5F08743CFA
:100EB0000318892FFF3A031D612F5E08303C031889
:100EC000892F8316071183120711E20A6208FE3C7C
:100ED00003186C2FFE30E2000B08A0008B132130AA
:100EE00083169B008312620883169A009C131C15BC
:100EF00055309D00AA309D009C149C187D2F1C111C
:100F0000831220088B040230A000A00B852F882FAD
:100F10000000CC1D8D2F6400CC11B11FBB2F490FD9
:100F2000932F8623BA2F59084902031D992F862330
:100F3000BA2F47084902031D9F2F8623BA2F49085D
:100F4000BF3C0318BA2F4908CF3C031CBA2F4908ED
:100F50000F39D1005008A3004F08A2005108A0008B
:100F60000319B72F0310A30CA20CA00BB22F220859
:100F700022188623B113311FC72F5208043C031CCB
:100F8000C72FD20A0230E400E5001723C82FD20190
:040F90001B2F6300B0
:1042000064000000640009000100000000001400C8
:104210001E00320046005A006400230028002D00D2
:0C4220004B0019003C0041005F006400EE
:06424000D40000000100A3
:02400E00EC3391
:00000001FF
;PIC16F684
;CRC=B528  CREATED="02-May-22 14:10"
