:1000000006308A002D2E0000831A0A28A400030E51
:10001000A5000F288312A400030EA500A5140A084A
:10002000AB008A018313A40E0408A6002008A700D1
:100030002108A8002208A9002308AA0083128B1E09
:1000400023280B193C290B1E27288B1840288C309D
:100050008400001C2D280C1874282608840027080A
:10006000A0002808A1002908A2002A08A3002B0844
:100070008A00250E83008312240EA518831609001A
:100080008B100B128B12B601053090008E01FC30E4
:100090008F00B7308E0083160C148312C801311400
:1000A000B301B401B501B701B201BB018B108A11D4
:1000B0002D28B117420B61283408C9003308CA0043
:1000C0006A28C208031D6A283508C9003408CA0016
:1000D0003308CB0010108B108B100B1683160C10EE
:1000E00083128B16BB010800CE011430CD003112F3
:1000F000311CB528831605158312B1100519B114EA
:100100003111B11831153110311D9C28311D9B283A
:10011000831605158312311105193115CD08031DFC
:100120009428CE08031999284D080319CE03CD034E
:100130009A2831118628AD283119AD288316051566
:1001400083123111051931154D080319CE03CD0B5A
:10015000AC28CE08031931159C28053090008E017B
:10016000FF308F0069308E00372983160515831202
:10017000B1110519B1153114053090008E01FE3012
:100180008F00A1308E003112B20A4C10CC10320810
:100190001A3C031C2E29B118D428B11DD4280314ED
:1001A000B30DB40DB50D2D29B11CDD28B119DD2815
:1001B0000310B30DB40DB50D2D29B11C2429B11DAB
:1001C00024293208113A0319EF28033A0319F128B8
:1001D0000B3A03190529033A031907291A29C80AF2
:1001E0002329C80A4808023C031DFD280130C2002B
:1001F00059204C144C11CC10042931168B100B16BD
:1002000083160C1083128B162329C80A2329C80AC7
:100210004808023C031D1229C20159204C104C15FC
:10022000CC10192931168B100B1683160C10831263
:100230008B162329311610108B100B1683160C10F9
:1002400083128B16BB012D293116BB0110108B10A8
:100250000B1683160C1083128B163729B116BB01AF
:1002600010108B100B1683160C1083128B16003097
:10027000A1000C108A112D28CC15BD0B4529043086
:10028000BD003B08F93C0318BB0A971F5C29E20834
:10029000031D5429E108031D5429E008031D5429B6
:1002A0005F08023C03185C29FF30DF07031CE007EE
:1002B000031CE107031CE2070B118A112D280530EE
:1002C00083169B009C131C141A088312E40004304C
:1002D00083169B009C131C141A088312E500640803
:1002E000D0006508CF000230A000A00B7529782946
:1002F000000083169B019C131C141A088312D6005D
:100300000230A000A00B822985290000013083164D
:100310009B009C131C141A088312D4000230A00006
:10032000A00B902993290000023083169B009C1398
:100330001C141A088312D5000230A000A00B9E29BD
:10034000A1290000033083169B009C131C141A087B
:100350008312DA000230A000A00BAC29AF29000004
:10036000203083169B009C131C141A088312C700AC
:100370000230A000A00BBA29BD2900001930831655
:100380009B009C131C141A088312E3000230A00087
:10039000A00BC829CB29000008000030A1000438B8
:1003A0009200F930831692008712831287120C3064
:1003B00095009601203097009A010A309900831623
:1003C00005081038850002308312A000A00BE62932
:1003D000E929000019088C11A130831699008312B5
:1003E0009613991683160108C7390838810005301D
:1003F0008312900010108B108316011383120B16BA
:100400008B1683168C10C03083128B041730BB0000
:10041000B1136A2E55086402031C112A5508E40022
:10042000172A64085402031C172A5408E4006408BD
:100430005402031C202A8316071183120711242A51
:10044000831607118312071564085E3C031C2B2AD0
:10045000BA016408B90064085E3C0318332A03300B
:10046000BA00FF30B9003A08023C0318422AFF3AAA
:10047000031D3E2A3908FC3C0318422A0330BA0007
:10048000FF30B9003A08A2003908A100A20CA10C63
:10049000A20CA10CA20C21089300A20C220C303952
:1004A000A0001508CF39200495000800E4010A22B5
:1004B000C40108003808E4000A220130C400080022
:1004C0002030F000EC01ED01EE01EF016708A30020
:1004D0006608A2006508A1006408A0000310201CA3
:1004E0007F2A6808EC0769080318690FED076A0896
:1004F00003186A0FEE076B0803186B0FEF07EF0C7A
:10050000EE0CED0CEC0CA30CA20CA10CA00CF00B4F
:100510006E2ACC2E3113831605158312051D942ADD
:1005200005108316051083121930A000A00B962A1F
:10053000992A0000831605158312051DA52A0514A6
:100540008316051083123117DC2A6030A000A00B3F
:10055000A72A00008316051583120519B42A05146D
:1005600083160510BB2A8312051483160510831207
:100570003117DC2A831619308312A000A00BBE2A83
:10058000C12A00008316051583120519CD2A05140A
:100590008316051083123117DC2A6030A000A00BEF
:1005A000CF2A00008316051583120519DC2A0514CD
:1005B00083160510831231170800051483160510E1
:1005C00005308312E600A330E7001230E702031C77
:1005D000F72A67308400FC3080050310800C800C03
:1005E00000080319F72AF52A0000800BF42AE60B0D
:1005F000E32A0800650DBE00BE0DBE0DF830BE0535
:100600003B08153C0318002B0B138B138B1B052B7E
:100610008A22BC013E083C0203185B2B0314BF0D69
:10062000C00DC10D031C162B8A22572B3113051444
:100630008316051019308312A000A00B1D2B202B50
:1006400000008316051583120519282B3117572B27
:100650006030A000A00B2A2B000083160515831222
:10066000051D372B0510831605103E2B831205142C
:100670008316051083123117572B831619308312F6
:10068000A000A00B412B442B0000831605158312FC
:10069000051D4C2B3117572B6030A000A00B4E2BA3
:1006A0000000831605158312051D572B3117311BCA
:1006B0005F2BBC0A0A2BDD22DD22DD22DD220514A0
:1006C000831605108312BB018B10C0308B048B1670
:1006D0000800C5014A08C93A0319B12B193A031990
:1006E000CE2B043A0319E02B0C3A0319E72B293AD5
:1006F0000319E72B2D3A0319F22B2C3A0319F22B8D
:100700001A3A0319FD2B0D3A0319222CEE3A03195C
:100710004A2C2B3A03190D2D013A0319312D073AB2
:100720000319362D013A03195D2D033A0319662D7D
:10073000013A0319752D163A0319832D033A03194B
:100740008C2D013A03199B2D193A0319AA2D013A50
:100750000319CA2D1B3A0319EA2D043A0319EC2D8B
:10076000FB2D55084B02031CBC2B8316071183126B
:1007700007155508B800CC2B4B085402031CC62B98
:100780008316071183120711B801CC2B83160711AA
:10079000831207154B08B8005A22FD2DE201E10132
:1007A0000B30E000B830DF00DE01DD01DC01DB01F1
:1007B00083160711831207155508B8005A22FD2D1C
:1007C0008316071183120711B8015622FD2D440B21
:1007D000F12B380854020318F12BB8033808E40051
:1007E0000A22FD2D440BFC2B550838020318FC2B64
:1007F000B80A3808E4000A22FD2D4B08103C031CFF
:10080000212C4B08C30006304307E400640883161C
:100810009B009C131C141A088312B8003808540259
:10082000031C192CB80183160711831207115622D5
:10083000212C83160711831207155A223808E40069
:100840000A22FD2D4B08103C031C492C0B138B1363
:100850008B1B272C06304B07E4000B08A0008B13E2
:10086000640883169B008312380883169A009C1331
:100870001C1555309D00AA309D009C149C183E2CE0
:100880001C11831220088B04452C462C0000C0301C
:100890008B04FD2D053083169B009C131C141A0835
:1008A0008312E400043083169B009C131C141A0866
:1008B0008312E5006408D0006508CF004B080F39AB
:1008C000D1004B0810390319692C103A0319BD2CBB
:1008D0000C2DA3010130A2005108A0000319752CB2
:1008E0000310A20DA30DA00B702C2208FF3AA0004C
:1008F000FF30A3062008CF052308D0054F08E400E9
:100900000B08A0008B13043083169B0083124F0842
:1009100083169A009C131C1555309D00AA309D002B
:100920009C149C18912C1C11831220088B040230FB
:10093000A000A00B992C9C2C00005008E4000B0890
:10094000A0008B13053083169B008312500883167A
:100950009A009C131C1555309D00AA309D009C14D4
:100960009C18B02C1C11831220088B040230A000AC
:10097000A00BB82CBB2C00000C2DA3010130A20051
:100980005108A0000319C92C0310A20DA30DA00B40
:10099000C42C2208CF042308D0044F08E4000B081D
:1009A000A0008B13043083169B0083124F0883161C
:1009B0009A009C131C1555309D00AA309D009C1474
:1009C0009C18E02C1C11831220088B040230A0001C
:1009D000A00BE82CEB2C00005008E4000B08A00052
:1009E0008B13053083169B008312500883169A00E0
:1009F0009C131C1555309D00AA309D009C149C181A
:100A0000FF2C1C11831220088B040230A000A00BC5
:100A1000072D0A2D00000C2DFD2D4B083F3C031C1B
:100A2000302D4B08DA000B08A0008B13033083161F
:100A30009B0083125A0883169A009C131C1555308C
:100A40009D00AA309D009C149C18242D1C1183121B
:100A500020088B040230A000A00B2C2D2F2D0000AD
:100A6000FD2D4B08D7000130D900FD2D4B08D800D3
:100A7000590B5B2D5808203C031C5B2DD9010B083A
:100A8000A0008B13580883169B0083125708831607
:100A90009A009C131C1555309D00AA309D009C1493
:100AA0009C18502D1C11831220088B040630A000C6
:100AB000A00B582D00005F21FD2D5A08C1005708DA
:100AC000C0000230E400E500FA22FD2D4B08D800FA
:100AD0005808203C031C742D580883169B009C1357
:100AE0001C141A088312D700FD2D5A08C100831662
:100AF0009B019C131C141A088312C0000230E400EE
:100B0000E500FA22FD2D5A08C1000730C00002306E
:100B1000E400E500FA22FD2D5A08C10007308316D3
:100B20009B009C131C141A088312C0000230E400BE
:100B3000E500FA22FD2D5A08C100083083169B00FB
:100B40009C131C141A088312C0000230E400E50054
:100B5000FA22FD2D4B08D5000B08A0008B130230A4
:100B600083169B008312550883169A009C131C154C
:100B700055309D00AA309D009C149C18BD2D1C1161
:100B8000831220088B040230A000A00BC52DC82DB5
:100B90000000FD2D4B08D4000B08A0008B13013082
:100BA00083169B008312540883169A009C131C150D
:100BB00055309D00AA309D009C149C18DD2D1C1101
:100BC000831220088B040230A000A00BE52DE82D35
:100BD0000000FD2D9713FD2D5A08C1001930831612
:100BE0009B009C131C141A088312C0000230E400FE
:100BF000E500FA22FD2D0130C500C508031D162EA3
:100C00000B08A0008B1383169B01831238088316F0
:100C10009A009C131C1555309D00AA309D009C1411
:100C20009C18102E1C11831220088B040230E40043
:100C300064308400000803192B2E0130A100A001AC
:100C4000A00B202EA10B1F2E4A30A000A00B262E99
:100C5000292E800B1D2EC601080003081F398300B2
:100C6000613083168F000F0804308312BD003113EA
:100C7000D430C7000130CE002C30CD00D201D301DA
:100C80000A30DA00CC11DE01DD01DC01DB01E2011A
:100C9000E101E001DF01E3011F1300308316910041
:100CA00083129A0107309900AC0118141130980092
:100CB0000A30A0008101813084000008F039073833
:100CC000800064000008F739A019F0392004800082
:100CD0005F21CD29053083169B009C131C141A0834
:100CE0008312E400043083169B009C131C141A0822
:100CF0008312E5006408D0006508CF0083169B01CD
:100D00009C131C141A088312D60056085402031CA4
:100D1000902E8316071183120711B80156229A2EBE
:100D200083160711831207155608B8003808E40027
:100D30000A225A22E201E1010B30E000B830DF0064
:100D4000DE01DD01DC01DB019713E208031D132F37
:100D5000E108031D132FE008031D132F5F08023C59
:100D6000031C132F971F132F97130130DB07031852
:100D7000DC0A0319DD0A0319DE0A5E08E7005D08D4
:100D8000E6005C08E5005B08E400EB01EA011330D3
:100D9000E9008830E800602A2008DF0721080318EE
:100DA000210FE00722080318220FE1072308031888
:100DB000230FE207E208031DEB2EE108031DEB2ED3
:100DC0006008743C0318132FFF3A031DEB2E5F08D5
:100DD000303C0318132F8316071183120711E30AFF
:100DE0006308FE3C0318F62EFE30E3000B08A0005B
:100DF0008B13193083169B008312630883169A00A5
:100E00009C131C1555309D00AA309D009C149C1805
:100E1000072F1C11831220088B040230A000A00BA6
:100E20000F2F122F0000CC1D172F6400CC11B11F03
:100E3000452F490F1D2F6923442F5A084902031DCE
:100E4000232F6923442F47084902031D292F6923B3
:100E5000442F4908BF3C0318442F4908CF3C031CCA
:100E6000442F49080F39D1005008A3004F08A200B1
:100E70005108A0000319412F0310A30CA20CA00BD2
:100E80003C2F220822186923B113311F512F520819
:100E9000043C031C512FD20A0230E400E500FA2280
:080EA000522FD201A52E6300C0
:104200006400000064000A000100000000001400C7
:104210001E00320046005A006400230028002D00D2
:0C4220004B0019003C0041005F006400EE
:02424000D400A8
:02400E00EC3391
:00000001FF
;PIC16F684
;CRC=6F0E  CREATED="30-Apr-22 22:42"
