:1000000006308A005F2E0000831A0A28A400030E1F
:10001000A5000F288312A400030EA500A5140A084A
:10002000AB008A018313A40E0408A6002008A700D1
:100030002108A8002208A9002308AA0083128B1E09
:1000400023280B193C290B1E27288B1840288C309D
:100050008400001C2D280C1874282608840027080A
:10006000A0002808A1002908A2002A08A3002B0844
:100070008A00250E83008312240EA518831609001A
:100080008B100B128B12B601053090008E01FC30E4
:100090008F00B7308E0083160C148312C801311400
:1000A000B301B401B501B701B201BB018B108A11D4
:1000B0002D28B117420B61283408C9003308CA0043
:1000C0006A28C208031D6A283508C9003408CA0016
:1000D0003308CB0010108B108B100B1683160C10EE
:1000E00083128B16BB010800CE011430CD003112F3
:1000F000311CB528831605158312B1100519B114EA
:100100003111B11831153110311D9C28311D9B283A
:10011000831605158312311105193115CD08031DFC
:100120009428CE08031999284D080319CE03CD034E
:100130009A2831118628AD283119AD288316051566
:1001400083123111051931154D080319CE03CD0B5A
:10015000AC28CE08031931159C28053090008E017B
:10016000FF308F0069308E00372983160515831202
:10017000B1110519B1153114053090008E01FE3012
:100180008F00A1308E003112B20A4C10CC10320810
:100190001A3C031C2E29B118D428B11DD4280314ED
:1001A000B30DB40DB50D2D29B11CDD28B119DD2815
:1001B0000310B30DB40DB50D2D29B11C2429B11DAB
:1001C00024293208113A0319EF28033A0319F128B8
:1001D0000B3A03190529033A031907291A29C80AF2
:1001E0002329C80A4808023C031DFD280130C2002B
:1001F00059204C144C11CC10042931168B100B16BD
:1002000083160C1083128B162329C80A2329C80AC7
:100210004808023C031D1229C20159204C104C15FC
:10022000CC10192931168B100B1683160C10831263
:100230008B162329311610108B100B1683160C10F9
:1002400083128B16BB012D293116BB0110108B10A8
:100250000B1683160C1083128B163729B116BB01AF
:1002600010108B100B1683160C1083128B16003097
:10027000A1000C108A112D28CC15BD0B4529043086
:10028000BD003B08F93C0318BB0A971F5C29E20834
:10029000031D5429E108031D5429E008031D5429B6
:1002A0005F08023C03185C29FF30DF07031CE007EE
:1002B000031CE107031CE2070B118A112D280530EE
:1002C00083169B009C131C141A088312E50004304B
:1002D00083169B009C131C141A088312E600650801
:1002E000D0006608CF000230A000A00B7529782945
:1002F000000083169B019C131C141A088312D6005D
:100300000230A000A00B822985290000013083164D
:100310009B009C131C141A088312D4000230A00006
:10032000A00B902993290000023083169B009C1398
:100330001C141A088312D5000230A000A00B9E29BD
:10034000A1290000033083169B009C131C141A087B
:100350008312DA000230A000A00BAC29AF29000004
:10036000203083169B009C131C141A088312C700AC
:100370000230A000A00BBA29BD2900001930831655
:100380009B009C131C141A088312E3000230A00087
:10039000A00BC829CB2900001A3083169B009C13A0
:1003A0001C141A088312E4000230A000A00BD62906
:1003B000D929000008000030A10004389200F9306B
:1003C000831692008712831287120C3095009601D3
:1003D000203097009A010A309900831605081038DA
:1003E000850002308312A000A00BF429F729000039
:1003F00019088C116408A038E5008316990083124F
:100400009613991683160108C739083881000530FC
:100410008312900010108B108316011383120B1699
:100420008B1683168C10C03083128B041730BB00E0
:10043000B1139E2E55086502031C212A5508E500BC
:10044000272A65085402031C272A5408E50065087A
:100450005402031C302A8316071183120711342A11
:10046000831607118312071565085E3C031C3B2A9F
:10047000BA016508B90065085E3C0318432A0330D9
:10048000BA00FF30B9003A08023C0318522AFF3A7A
:10049000031D4E2A3908FC3C0318522A0330BA00C7
:1004A000FF30B9003A08A2003908A100A20CA10C43
:1004B000A20CA10CA20C21089300A20C220C303932
:1004C000A0001508CF39200495000800E5011A2284
:1004D000C40108003808E5001A220130C4000800F1
:1004E0002030F100ED01EE01EF01F0016808A300FA
:1004F0006708A2006608A1006508A0000310201C80
:100500008F2A6908ED076A0803186A0FEE076B085F
:1005100003186B0FEF076C0803186C0FF007F00C53
:10052000EF0CEE0CED0CA30CA20CA10CA00CF10B2B
:100530007E2A002F3113831605158312051DA42A68
:1005400005108316051083121930A000A00BA62AEF
:10055000A92A0000831605158312051DB52A051466
:100560008316051083123117EC2A6030A000A00B0F
:10057000B72A00008316051583120519C42A05142D
:1005800083160510CB2A83120514831605108312D7
:100590003117EC2A831619308312A000A00BCE2A43
:1005A000D12A00008316051583120519DD2A0514CA
:1005B0008316051083123117EC2A6030A000A00BBF
:1005C000DF2A00008316051583120519EC2A05148D
:1005D00083160510831231170800051483160510C1
:1005E00005308312E700A330E8001230E802031C54
:1005F000072B68308400FC3080050310800C800CD1
:1006000000080319072B052B0000800B042BE70BB8
:10061000F32A0800660DBE00BE0DBE0DF830BE0503
:100620003B080C3C0318102B0B138B138B1B152B47
:100630009A22BC013E083C0203186B2B0314BF0D29
:10064000C00DC10D031C262B9A22672B31130514F4
:100650008316051019308312A000A00B2D2B302B10
:1006600000008316051583120519382B3117672BE7
:100670006030A000A00B3A2B0000831605158312F2
:10068000051D472B0510831605104E2B83120514EC
:100690008316051083123117672B831619308312C6
:1006A000A000A00B512B542B0000831605158312BC
:1006B000051D5C2B3117672B6030A000A00B5E2B53
:1006C0000000831605158312051D672B3117311B9A
:1006D0006F2BBC0A1A2BED22ED22ED22ED22051420
:1006E000831605108312BB018B10C0308B048B1650
:1006F0000800C5014A08C93A0319C42B193A03195D
:10070000E12B043A0319F32B0C3A0319FA2B293A7B
:100710000319FA2B2D3A0319052C2C3A0319052C31
:100720001A3A0319102C0D3A0319352CEE3A031915
:100730005D2C2B3A0319202D013A0319442D073A59
:100740000319492D013A0319702D033A0319792D24
:10075000013A0319882D163A0319962D033A031905
:100760009F2D013A0319AE2D193A0319BD2D013AF7
:100770000319DD2D1B3A0319FD2D043A0319FF2D32
:10078000013A03190E2E2D2E55084B02031CCF2BB8
:1007900083160711831207155508B800DF2B4B0885
:1007A0005402031CD92B8316071183120711B801B9
:1007B000DF2B83160711831207154B08B8006A2236
:1007C0002F2EE201E1010B30E000B830DF00DE0146
:1007D000DD01DC01DB0183160711831207155508C3
:1007E000B8006A222F2E8316071183120711B80151
:1007F00066222F2E440B042C380854020318042CB4
:10080000B8033808E5001A222F2E440B0F2C550888
:10081000380203180F2CB80A3808E5001A222F2EC8
:100820004B08103C031C342C4B08C3000630430714
:10083000E500650883169B009C131C141A0883129C
:10084000B80038085402031C2C2CB8018316071179
:10085000831207116622342C8316071183120715A1
:100860006A223808E5001A222F2E4B08103C031C80
:100870005C2C0B138B138B1B3A2C06304B07E500BB
:100880000B08A0008B13650883169B0083123808A1
:1008900083169A009C131C1555309D00AA309D00AC
:1008A0009C149C18512C1C11831220088B04582C6A
:1008B000592C0000C0308B042F2E053083169B006E
:1008C0009C131C141A088312E500043083169B0045
:1008D0009C131C141A088312E6006508D0006608F1
:1008E000CF004B080F39D1004B08103903197C2C6D
:1008F000103A0319D02C1F2DA3010130A20051087A
:10090000A0000319882C0310A20DA30DA00B832CAB
:100910002208FF3AA000FF30A3062008CF052308D5
:10092000D0054F08E5000B08A0008B130430831698
:100930009B0083124F0883169A009C131C15553098
:100940009D00AA309D009C149C18A42C1C1183129D
:1009500020088B040230A000A00BAC2CAF2C0000B0
:100960005008E5000B08A0008B13053083169B0090
:100970008312500883169A009C131C1555309D0055
:10098000AA309D009C149C18C32C1C1183122008B3
:100990008B040230A000A00BCB2CCE2C00001F2D0E
:1009A000A3010130A2005108A0000319DC2C0310A0
:1009B000A20DA30DA00BD72C2208CF042308D0042E
:1009C0004F08E5000B08A0008B13043083169B0032
:1009D00083124F0883169A009C131C1555309D00F6
:1009E000AA309D009C149C18F32C1C118312200823
:1009F0008B040230A000A00BFB2CFE2C0000500842
:100A0000E5000B08A0008B13053083169B008312B2
:100A1000500883169A009C131C1555309D00AA306F
:100A20009D009C149C18122D1C11831220088B040D
:100A30000230A000A00B1A2D1D2D00001F2D2F2EFF
:100A40004B083F3C031C432D4B08DA000B08A00069
:100A50008B13033083169B0083125A0883169A0067
:100A60009C131C1555309D00AA309D009C149C18A9
:100A7000372D1C11831220088B040230A000A00B1C
:100A80003F2D422D00002F2E4B08D7000130D900FA
:100A90002F2E4B08D800590B6E2D5808203C031CF4
:100AA0006E2DD9010B08A0008B13580883169B00EC
:100AB0008312570883169A009C131C1555309D000D
:100AC000AA309D009C149C18632D1C1183122008D1
:100AD0008B040630A000A00B6B2D00005F212F2E91
:100AE0005A08C1005708C0000230E500E6000A239A
:100AF0002F2E4B08D8005808203C031C872D58087F
:100B000083169B009C131C141A088312D7002F2EE7
:100B10005A08C10083169B019C131C141A088312E7
:100B2000C0000230E500E6000A232F2E5A08C1005B
:100B30000730C0000230E500E6000A232F2E5A08D5
:100B4000C100073083169B009C131C141A088312E3
:100B5000C0000230E500E6000A232F2E5A08C1002B
:100B6000083083169B009C131C141A088312C000C3
:100B70000230E500E6000A232F2E4B08D5000B08B3
:100B8000A0008B13023083169B0083125508831636
:100B90009A009C131C1555309D00AA309D009C1492
:100BA0009C18D02D1C11831220088B040230A00049
:100BB000A00BD82DDB2D00002F2E4B08D4000B08E6
:100BC000A0008B13013083169B00831254088316F8
:100BD0009A009C131C1555309D00AA309D009C1452
:100BE0009C18F02D1C11831220088B040230A000E9
:100BF000A00BF82DFB2D00002F2E97132F2E5A0837
:100C0000C100193083169B009C131C141A08831210
:100C1000C0000230E500E6000A232F2E4B08E40056
:100C20000B08A0008B131A3083169B0083126408F4
:100C300083169A009C131C1555309D00AA309D0008
:100C40009C149C18212E1C11831220088B04023046
:100C5000A000A00B292E2C2E00000130C500C508D5
:100C6000031D482E0B08A0008B1383169B018312D3
:100C7000380883169A009C131C1555309D00AA3025
:100C80009D009C149C18422E1C11831220088B047A
:100C90000230E50065308400000803195D2E013044
:100CA000A100A001A00B522EA10B512E4A30A00092
:100CB000A00B582E5B2E800B4F2EC6010800030898
:100CC0001F398300613083168F000F0804308312B0
:100CD000BD003113D230C7000130CE002C30CD0022
:100CE000D201D3010130DA00CC11DE01DD01DC01DB
:100CF000DB01E201E101E001DF01E3010130E40099
:100D00001F1300308316910083129A010730990057
:100D1000AC011814113098000A30A0008101813014
:100D200084000008F0390738800064000008F739B3
:100D3000A019F039200480005F21DB2905308316DB
:100D40009B009C131C141A088312E50004308316C0
:100D50009B009C131C141A088312E6006508D0003F
:100D60006608CF0083169B019C131C141A0883127B
:100D7000D60056085402031CC42E83160711831292
:100D80000711B8016622CE2E8316071183120715AC
:100D90005608B8003808E5001A226A22E201E1018B
:100DA0000B30E000B830DF00DE01DD01DC01DB01EB
:100DB0009713E208031D472FE108031D472FE008A2
:100DC000031D472F5F08023C031C472F971F472F27
:100DD00097130130DB070318DC0A0319DD0A031936
:100DE000DE0A5E08E8005D08E7005C08E6005B08D4
:100DF000E500EC01EB011330EA008830E900702ACD
:100E00002008DF0721080318210FE0072208031834
:100E1000220FE10723080318230FE207E208031D4E
:100E20001F2FE108031D1F2F6008743C0318472F74
:100E3000FF3A031D1F2F5F08303C0318472F83160E
:100E4000071183120711E30A6308FE3C03182A2FD7
:100E5000FE30E3000B08A0008B13193083169B00B3
:100E60008312630883169A009C131C1555309D004D
:100E7000AA309D009C149C183B2F1C118312200843
:100E80008B040230A000A00B432F462F0000CC1D86
:100E90004B2F6400CC11B11F792F490F512F7923AB
:100EA000782F5A084902031D572F7923782F4708B6
:100EB0004902031D5D2F7923782F4908BF3C031891
:100EC000782F4908CF3C031C782F49080F39D100EF
:100ED0005008A3004F08A2005108A0000319752F65
:100EE0000310A30CA20CA00B702F22082218792348
:100EF000B113311F852F5208043C031C852FD20AE1
:100F00000230E500E6000A23862FD201D92E6300C5
:1042000064000000640001000100000000001400D0
:104210001E00320046005A006400230028002D00D2
:0C4220004B0019003C0041005F006400EE
:02424000D200AA
:02400E00EC3391
:00000001FF
;PIC16F684
;CRC=FEC3  CREATED="01-May-22 21:57"
